{
  "_format": "hh-sol-artifact-1",
  "contractName": "BasicNFT",
  "sourceName": "contracts/BasicNFT.sol",
  "abi": [
    {
      "inputs": [],
      "stateMutability": "nonpayable",
      "type": "constructor"
    },
    {
      "anonymous": false,
      "inputs": [
        {
          "indexed": true,
          "internalType": "address",
          "name": "owner",
          "type": "address"
        },
        {
          "indexed": true,
          "internalType": "address",
          "name": "approved",
          "type": "address"
        },
        {
          "indexed": true,
          "internalType": "uint256",
          "name": "tokenId",
          "type": "uint256"
        }
      ],
      "name": "Approval",
      "type": "event"
    },
    {
      "anonymous": false,
      "inputs": [
        {
          "indexed": true,
          "internalType": "address",
          "name": "owner",
          "type": "address"
        },
        {
          "indexed": true,
          "internalType": "address",
          "name": "operator",
          "type": "address"
        },
        {
          "indexed": false,
          "internalType": "bool",
          "name": "approved",
          "type": "bool"
        }
      ],
      "name": "ApprovalForAll",
      "type": "event"
    },
    {
      "anonymous": false,
      "inputs": [
        {
          "indexed": true,
          "internalType": "address",
          "name": "from",
          "type": "address"
        },
        {
          "indexed": true,
          "internalType": "address",
          "name": "to",
          "type": "address"
        },
        {
          "indexed": true,
          "internalType": "uint256",
          "name": "tokenId",
          "type": "uint256"
        }
      ],
      "name": "Transfer",
      "type": "event"
    },
    {
      "inputs": [],
      "name": "TOKEN_URI",
      "outputs": [
        {
          "internalType": "string",
          "name": "",
          "type": "string"
        }
      ],
      "stateMutability": "view",
      "type": "function"
    },
    {
      "inputs": [
        {
          "internalType": "address",
          "name": "to",
          "type": "address"
        },
        {
          "internalType": "uint256",
          "name": "tokenId",
          "type": "uint256"
        }
      ],
      "name": "approve",
      "outputs": [],
      "stateMutability": "nonpayable",
      "type": "function"
    },
    {
      "inputs": [
        {
          "internalType": "address",
          "name": "owner",
          "type": "address"
        }
      ],
      "name": "balanceOf",
      "outputs": [
        {
          "internalType": "uint256",
          "name": "",
          "type": "uint256"
        }
      ],
      "stateMutability": "view",
      "type": "function"
    },
    {
      "inputs": [
        {
          "internalType": "uint256",
          "name": "tokenId",
          "type": "uint256"
        }
      ],
      "name": "getApproved",
      "outputs": [
        {
          "internalType": "address",
          "name": "",
          "type": "address"
        }
      ],
      "stateMutability": "view",
      "type": "function"
    },
    {
      "inputs": [],
      "name": "getTokenCounter",
      "outputs": [
        {
          "internalType": "uint256",
          "name": "",
          "type": "uint256"
        }
      ],
      "stateMutability": "view",
      "type": "function"
    },
    {
      "inputs": [
        {
          "internalType": "address",
          "name": "owner",
          "type": "address"
        },
        {
          "internalType": "address",
          "name": "operator",
          "type": "address"
        }
      ],
      "name": "isApprovedForAll",
      "outputs": [
        {
          "internalType": "bool",
          "name": "",
          "type": "bool"
        }
      ],
      "stateMutability": "view",
      "type": "function"
    },
    {
      "inputs": [
        {
          "internalType": "address",
          "name": "receiver",
          "type": "address"
        }
      ],
      "name": "mint_nft",
      "outputs": [
        {
          "internalType": "uint256",
          "name": "",
          "type": "uint256"
        }
      ],
      "stateMutability": "nonpayable",
      "type": "function"
    },
    {
      "inputs": [],
      "name": "name",
      "outputs": [
        {
          "internalType": "string",
          "name": "",
          "type": "string"
        }
      ],
      "stateMutability": "view",
      "type": "function"
    },
    {
      "inputs": [
        {
          "internalType": "uint256",
          "name": "tokenId",
          "type": "uint256"
        }
      ],
      "name": "ownerOf",
      "outputs": [
        {
          "internalType": "address",
          "name": "",
          "type": "address"
        }
      ],
      "stateMutability": "view",
      "type": "function"
    },
    {
      "inputs": [],
      "name": "s_tokenCounter",
      "outputs": [
        {
          "internalType": "uint256",
          "name": "",
          "type": "uint256"
        }
      ],
      "stateMutability": "view",
      "type": "function"
    },
    {
      "inputs": [
        {
          "internalType": "address",
          "name": "from",
          "type": "address"
        },
        {
          "internalType": "address",
          "name": "to",
          "type": "address"
        },
        {
          "internalType": "uint256",
          "name": "tokenId",
          "type": "uint256"
        }
      ],
      "name": "safeTransferFrom",
      "outputs": [],
      "stateMutability": "nonpayable",
      "type": "function"
    },
    {
      "inputs": [
        {
          "internalType": "address",
          "name": "from",
          "type": "address"
        },
        {
          "internalType": "address",
          "name": "to",
          "type": "address"
        },
        {
          "internalType": "uint256",
          "name": "tokenId",
          "type": "uint256"
        },
        {
          "internalType": "bytes",
          "name": "data",
          "type": "bytes"
        }
      ],
      "name": "safeTransferFrom",
      "outputs": [],
      "stateMutability": "nonpayable",
      "type": "function"
    },
    {
      "inputs": [
        {
          "internalType": "address",
          "name": "operator",
          "type": "address"
        },
        {
          "internalType": "bool",
          "name": "approved",
          "type": "bool"
        }
      ],
      "name": "setApprovalForAll",
      "outputs": [],
      "stateMutability": "nonpayable",
      "type": "function"
    },
    {
      "inputs": [
        {
          "internalType": "bytes4",
          "name": "interfaceId",
          "type": "bytes4"
        }
      ],
      "name": "supportsInterface",
      "outputs": [
        {
          "internalType": "bool",
          "name": "",
          "type": "bool"
        }
      ],
      "stateMutability": "view",
      "type": "function"
    },
    {
      "inputs": [],
      "name": "symbol",
      "outputs": [
        {
          "internalType": "string",
          "name": "",
          "type": "string"
        }
      ],
      "stateMutability": "view",
      "type": "function"
    },
    {
      "inputs": [
        {
          "internalType": "uint256",
          "name": "",
          "type": "uint256"
        }
      ],
      "name": "tokenURI",
      "outputs": [
        {
          "internalType": "string",
          "name": "",
          "type": "string"
        }
      ],
      "stateMutability": "view",
      "type": "function"
    },
    {
      "inputs": [
        {
          "internalType": "address",
          "name": "from",
          "type": "address"
        },
        {
          "internalType": "address",
          "name": "to",
          "type": "address"
        },
        {
          "internalType": "uint256",
          "name": "tokenId",
          "type": "uint256"
        }
      ],
      "name": "transferFrom",
      "outputs": [],
      "stateMutability": "nonpayable",
      "type": "function"
    }
  ],
  "bytecode": "0x608060405260006006553480156200001657600080fd5b506040518060400160405280600981526020017f4949495456204e465400000000000000000000000000000000000000000000008152506040518060400160405280600581526020017f494949545600000000000000000000000000000000000000000000000000000081525081600090805190602001906200009b929190620000bd565b508060019080519060200190620000b4929190620000bd565b505050620001d2565b828054620000cb906200019c565b90600052602060002090601f016020900481019282620000ef57600085556200013b565b82601f106200010a57805160ff19168380011785556200013b565b828001600101855582156200013b579182015b828111156200013a5782518255916020019190600101906200011d565b5b5090506200014a91906200014e565b5090565b5b80821115620001695760008160009055506001016200014f565b5090565b7f4e487b7100000000000000000000000000000000000000000000000000000000600052602260045260246000fd5b60006002820490506001821680620001b557607f821691505b60208210811415620001cc57620001cb6200016d565b5b50919050565b61237180620001e26000396000f3fe608060405234801561001057600080fd5b506004361061010b5760003560e01c80636352211e116100a257806395d89b411161007157806395d89b41146102cc578063a22cb465146102ea578063b88d4fde14610306578063c87b56dd14610322578063e985e9c5146103525761010b565b80636352211e146102305780636e02007d1461026057806370a082311461027e57806378ce9035146102ae5761010b565b8063095ea7b3116100de578063095ea7b3146101be5780630b21a83b146101da57806323b872dd146101f857806342842e0e146102145761010b565b806301ffc9a71461011057806302aafeab1461014057806306fdde0314610170578063081812fc1461018e575b600080fd5b61012a60048036038101906101259190611644565b610382565b604051610137919061168c565b60405180910390f35b61015a60048036038101906101559190611705565b610464565b604051610167919061174b565b60405180910390f35b610178610494565b60405161018591906117ff565b60405180910390f35b6101a860048036038101906101a3919061184d565b610526565b6040516101b59190611889565b60405180910390f35b6101d860048036038101906101d391906118a4565b61056c565b005b6101e2610684565b6040516101ef919061174b565b60405180910390f35b610212600480360381019061020d91906118e4565b61068a565b005b61022e600480360381019061022991906118e4565b6106ea565b005b61024a6004803603810190610245919061184d565b61070a565b6040516102579190611889565b60405180910390f35b610268610791565b604051610275919061174b565b60405180910390f35b61029860048036038101906102939190611705565b61079b565b6040516102a5919061174b565b60405180910390f35b6102b6610853565b6040516102c391906117ff565b60405180910390f35b6102d461086f565b6040516102e191906117ff565b60405180910390f35b61030460048036038101906102ff9190611963565b610901565b005b610320600480360381019061031b9190611ad8565b610917565b005b61033c6004803603810190610337919061184d565b610979565b60405161034991906117ff565b60405180910390f35b61036c60048036038101906103679190611b5b565b61099b565b604051610379919061168c565b60405180910390f35b60007f80ac58cd000000000000000000000000000000000000000000000000000000007bffffffffffffffffffffffffffffffffffffffffffffffffffffffff1916827bffffffffffffffffffffffffffffffffffffffffffffffffffffffff1916148061044d57507f5b5e139f000000000000000000000000000000000000000000000000000000007bffffffffffffffffffffffffffffffffffffffffffffffffffffffff1916827bffffffffffffffffffffffffffffffffffffffffffffffffffffffff1916145b8061045d575061045c82610a2f565b5b9050919050565b600061047282600654610a99565b6006600081548092919061048590611bca565b91905055506006549050919050565b6060600080546104a390611c42565b80601f01602080910402602001604051908101604052809291908181526020018280546104cf90611c42565b801561051c5780601f106104f15761010080835404028352916020019161051c565b820191906000526020600020905b8154815290600101906020018083116104ff57829003601f168201915b5050505050905090565b600061053182610ab7565b6004600083815260200190815260200160002060009054906101000a900473ffffffffffffffffffffffffffffffffffffffff169050919050565b60006105778261070a565b90508073ffffffffffffffffffffffffffffffffffffffff168373ffffffffffffffffffffffffffffffffffffffff1614156105e8576040517f08c379a00000000000000000000000000000000000000000000000000000000081526004016105df90611ce6565b60405180910390fd5b8073ffffffffffffffffffffffffffffffffffffffff16610607610b02565b73ffffffffffffffffffffffffffffffffffffffff161480610636575061063581610630610b02565b61099b565b5b610675576040517f08c379a000000000000000000000000000000000000000000000000000000000815260040161066c90611d78565b60405180910390fd5b61067f8383610b0a565b505050565b60065481565b61069b610695610b02565b82610bc3565b6106da576040517f08c379a00000000000000000000000000000000000000000000000000000000081526004016106d190611e0a565b60405180910390fd5b6106e5838383610c58565b505050565b61070583838360405180602001604052806000815250610917565b505050565b60008061071683610f52565b9050600073ffffffffffffffffffffffffffffffffffffffff168173ffffffffffffffffffffffffffffffffffffffff161415610788576040517f08c379a000000000000000000000000000000000000000000000000000000000815260040161077f90611e76565b60405180910390fd5b80915050919050565b6000600654905090565b60008073ffffffffffffffffffffffffffffffffffffffff168273ffffffffffffffffffffffffffffffffffffffff16141561080c576040517f08c379a000000000000000000000000000000000000000000000000000000000815260040161080390611f08565b60405180910390fd5b600360008373ffffffffffffffffffffffffffffffffffffffff1673ffffffffffffffffffffffffffffffffffffffff168152602001908152602001600020549050919050565b6040518060600160405280603681526020016123066036913981565b60606001805461087e90611c42565b80601f01602080910402602001604051908101604052809291908181526020018280546108aa90611c42565b80156108f75780601f106108cc576101008083540402835291602001916108f7565b820191906000526020600020905b8154815290600101906020018083116108da57829003601f168201915b5050505050905090565b61091361090c610b02565b8383610f8f565b5050565b610928610922610b02565b83610bc3565b610967576040517f08c379a000000000000000000000000000000000000000000000000000000000815260040161095e90611e0a565b60405180910390fd5b610973848484846110fc565b50505050565b6060604051806060016040528060368152602001612306603691399050919050565b6000600560008473ffffffffffffffffffffffffffffffffffffffff1673ffffffffffffffffffffffffffffffffffffffff16815260200190815260200160002060008373ffffffffffffffffffffffffffffffffffffffff1673ffffffffffffffffffffffffffffffffffffffff16815260200190815260200160002060009054906101000a900460ff16905092915050565b60007f01ffc9a7000000000000000000000000000000000000000000000000000000007bffffffffffffffffffffffffffffffffffffffffffffffffffffffff1916827bffffffffffffffffffffffffffffffffffffffffffffffffffffffff1916149050919050565b610ab3828260405180602001604052806000815250611158565b5050565b610ac0816111b3565b610aff576040517f08c379a0000000000000000000000000000000000000000000000000000000008152600401610af690611e76565b60405180910390fd5b50565b600033905090565b816004600083815260200190815260200160002060006101000a81548173ffffffffffffffffffffffffffffffffffffffff021916908373ffffffffffffffffffffffffffffffffffffffff160217905550808273ffffffffffffffffffffffffffffffffffffffff16610b7d8361070a565b73ffffffffffffffffffffffffffffffffffffffff167f8c5be1e5ebec7d5bd14f71427d1e84f3dd0314c0f7b2291e5b200ac8c7c3b92560405160405180910390a45050565b600080610bcf8361070a565b90508073ffffffffffffffffffffffffffffffffffffffff168473ffffffffffffffffffffffffffffffffffffffff161480610c115750610c10818561099b565b5b80610c4f57508373ffffffffffffffffffffffffffffffffffffffff16610c3784610526565b73ffffffffffffffffffffffffffffffffffffffff16145b91505092915050565b8273ffffffffffffffffffffffffffffffffffffffff16610c788261070a565b73ffffffffffffffffffffffffffffffffffffffff1614610cce576040517f08c379a0000000000000000000000000000000000000000000000000000000008152600401610cc590611f9a565b60405180910390fd5b600073ffffffffffffffffffffffffffffffffffffffff168273ffffffffffffffffffffffffffffffffffffffff161415610d3e576040517f08c379a0000000000000000000000000000000000000000000000000000000008152600401610d359061202c565b60405180910390fd5b610d4b83838360016111f4565b8273ffffffffffffffffffffffffffffffffffffffff16610d6b8261070a565b73ffffffffffffffffffffffffffffffffffffffff1614610dc1576040517f08c379a0000000000000000000000000000000000000000000000000000000008152600401610db890611f9a565b60405180910390fd5b6004600082815260200190815260200160002060006101000a81549073ffffffffffffffffffffffffffffffffffffffff02191690556001600360008573ffffffffffffffffffffffffffffffffffffffff1673ffffffffffffffffffffffffffffffffffffffff168152602001908152602001600020600082825403925050819055506001600360008473ffffffffffffffffffffffffffffffffffffffff1673ffffffffffffffffffffffffffffffffffffffff16815260200190815260200160002060008282540192505081905550816002600083815260200190815260200160002060006101000a81548173ffffffffffffffffffffffffffffffffffffffff021916908373ffffffffffffffffffffffffffffffffffffffff160217905550808273ffffffffffffffffffffffffffffffffffffffff168473ffffffffffffffffffffffffffffffffffffffff167fddf252ad1be2c89b69c2b068fc378daa952ba7f163c4a11628f55a4df523b3ef60405160405180910390a4610f4d83838360016111fa565b505050565b60006002600083815260200190815260200160002060009054906101000a900473ffffffffffffffffffffffffffffffffffffffff169050919050565b8173ffffffffffffffffffffffffffffffffffffffff168373ffffffffffffffffffffffffffffffffffffffff161415610ffe576040517f08c379a0000000000000000000000000000000000000000000000000000000008152600401610ff590612098565b60405180910390fd5b80600560008573ffffffffffffffffffffffffffffffffffffffff1673ffffffffffffffffffffffffffffffffffffffff16815260200190815260200160002060008473ffffffffffffffffffffffffffffffffffffffff1673ffffffffffffffffffffffffffffffffffffffff16815260200190815260200160002060006101000a81548160ff0219169083151502179055508173ffffffffffffffffffffffffffffffffffffffff168373ffffffffffffffffffffffffffffffffffffffff167f17307eab39ab6107e8899845ad3d59bd9653f200f220920489ca2b5937696c31836040516110ef919061168c565b60405180910390a3505050565b611107848484610c58565b61111384848484611200565b611152576040517f08c379a00000000000000000000000000000000000000000000000000000000081526004016111499061212a565b60405180910390fd5b50505050565b6111628383611397565b61116f6000848484611200565b6111ae576040517f08c379a00000000000000000000000000000000000000000000000000000000081526004016111a59061212a565b60405180910390fd5b505050565b60008073ffffffffffffffffffffffffffffffffffffffff166111d583610f52565b73ffffffffffffffffffffffffffffffffffffffff1614159050919050565b50505050565b50505050565b60006112218473ffffffffffffffffffffffffffffffffffffffff166115b5565b1561138a578373ffffffffffffffffffffffffffffffffffffffff1663150b7a0261124a610b02565b8786866040518563ffffffff1660e01b815260040161126c949392919061219f565b602060405180830381600087803b15801561128657600080fd5b505af19250505080156112b757506040513d601f19601f820116820180604052508101906112b49190612200565b60015b61133a573d80600081146112e7576040519150601f19603f3d011682016040523d82523d6000602084013e6112ec565b606091505b50600081511415611332576040517f08c379a00000000000000000000000000000000000000000000000000000000081526004016113299061212a565b60405180910390fd5b805181602001fd5b63150b7a0260e01b7bffffffffffffffffffffffffffffffffffffffffffffffffffffffff1916817bffffffffffffffffffffffffffffffffffffffffffffffffffffffff19161491505061138f565b600190505b949350505050565b600073ffffffffffffffffffffffffffffffffffffffff168273ffffffffffffffffffffffffffffffffffffffff161415611407576040517f08c379a00000000000000000000000000000000000000000000000000000000081526004016113fe90612279565b60405180910390fd5b611410816111b3565b15611450576040517f08c379a0000000000000000000000000000000000000000000000000000000008152600401611447906122e5565b60405180910390fd5b61145e6000838360016111f4565b611467816111b3565b156114a7576040517f08c379a000000000000000000000000000000000000000000000000000000000815260040161149e906122e5565b60405180910390fd5b6001600360008473ffffffffffffffffffffffffffffffffffffffff1673ffffffffffffffffffffffffffffffffffffffff16815260200190815260200160002060008282540192505081905550816002600083815260200190815260200160002060006101000a81548173ffffffffffffffffffffffffffffffffffffffff021916908373ffffffffffffffffffffffffffffffffffffffff160217905550808273ffffffffffffffffffffffffffffffffffffffff16600073ffffffffffffffffffffffffffffffffffffffff167fddf252ad1be2c89b69c2b068fc378daa952ba7f163c4a11628f55a4df523b3ef60405160405180910390a46115b16000838360016111fa565b5050565b6000808273ffffffffffffffffffffffffffffffffffffffff163b119050919050565b6000604051905090565b600080fd5b600080fd5b60007fffffffff0000000000000000000000000000000000000000000000000000000082169050919050565b611621816115ec565b811461162c57600080fd5b50565b60008135905061163e81611618565b92915050565b60006020828403121561165a576116596115e2565b5b60006116688482850161162f565b91505092915050565b60008115159050919050565b61168681611671565b82525050565b60006020820190506116a1600083018461167d565b92915050565b600073ffffffffffffffffffffffffffffffffffffffff82169050919050565b60006116d2826116a7565b9050919050565b6116e2816116c7565b81146116ed57600080fd5b50565b6000813590506116ff816116d9565b92915050565b60006020828403121561171b5761171a6115e2565b5b6000611729848285016116f0565b91505092915050565b6000819050919050565b61174581611732565b82525050565b6000602082019050611760600083018461173c565b92915050565b600081519050919050565b600082825260208201905092915050565b60005b838110156117a0578082015181840152602081019050611785565b838111156117af576000848401525b50505050565b6000601f19601f8301169050919050565b60006117d182611766565b6117db8185611771565b93506117eb818560208601611782565b6117f4816117b5565b840191505092915050565b6000602082019050818103600083015261181981846117c6565b905092915050565b61182a81611732565b811461183557600080fd5b50565b60008135905061184781611821565b92915050565b600060208284031215611863576118626115e2565b5b600061187184828501611838565b91505092915050565b611883816116c7565b82525050565b600060208201905061189e600083018461187a565b92915050565b600080604083850312156118bb576118ba6115e2565b5b60006118c9858286016116f0565b92505060206118da85828601611838565b9150509250929050565b6000806000606084860312156118fd576118fc6115e2565b5b600061190b868287016116f0565b935050602061191c868287016116f0565b925050604061192d86828701611838565b9150509250925092565b61194081611671565b811461194b57600080fd5b50565b60008135905061195d81611937565b92915050565b6000806040838503121561197a576119796115e2565b5b6000611988858286016116f0565b92505060206119998582860161194e565b9150509250929050565b600080fd5b600080fd5b7f4e487b7100000000000000000000000000000000000000000000000000000000600052604160045260246000fd5b6119e5826117b5565b810181811067ffffffffffffffff82111715611a0457611a036119ad565b5b80604052505050565b6000611a176115d8565b9050611a2382826119dc565b919050565b600067ffffffffffffffff821115611a4357611a426119ad565b5b611a4c826117b5565b9050602081019050919050565b82818337600083830152505050565b6000611a7b611a7684611a28565b611a0d565b905082815260208101848484011115611a9757611a966119a8565b5b611aa2848285611a59565b509392505050565b600082601f830112611abf57611abe6119a3565b5b8135611acf848260208601611a68565b91505092915050565b60008060008060808587031215611af257611af16115e2565b5b6000611b00878288016116f0565b9450506020611b11878288016116f0565b9350506040611b2287828801611838565b925050606085013567ffffffffffffffff811115611b4357611b426115e7565b5b611b4f87828801611aaa565b91505092959194509250565b60008060408385031215611b7257611b716115e2565b5b6000611b80858286016116f0565b9250506020611b91858286016116f0565b9150509250929050565b7f4e487b7100000000000000000000000000000000000000000000000000000000600052601160045260246000fd5b6000611bd582611732565b91507fffffffffffffffffffffffffffffffffffffffffffffffffffffffffffffffff821415611c0857611c07611b9b565b5b600182019050919050565b7f4e487b7100000000000000000000000000000000000000000000000000000000600052602260045260246000fd5b60006002820490506001821680611c5a57607f821691505b60208210811415611c6e57611c6d611c13565b5b50919050565b7f4552433732313a20617070726f76616c20746f2063757272656e74206f776e6560008201527f7200000000000000000000000000000000000000000000000000000000000000602082015250565b6000611cd0602183611771565b9150611cdb82611c74565b604082019050919050565b60006020820190508181036000830152611cff81611cc3565b9050919050565b7f4552433732313a20617070726f76652063616c6c6572206973206e6f7420746f60008201527f6b656e206f776e6572206f7220617070726f76656420666f7220616c6c000000602082015250565b6000611d62603d83611771565b9150611d6d82611d06565b604082019050919050565b60006020820190508181036000830152611d9181611d55565b9050919050565b7f4552433732313a2063616c6c6572206973206e6f7420746f6b656e206f776e6560008201527f72206f7220617070726f76656400000000000000000000000000000000000000602082015250565b6000611df4602d83611771565b9150611dff82611d98565b604082019050919050565b60006020820190508181036000830152611e2381611de7565b9050919050565b7f4552433732313a20696e76616c696420746f6b656e2049440000000000000000600082015250565b6000611e60601883611771565b9150611e6b82611e2a565b602082019050919050565b60006020820190508181036000830152611e8f81611e53565b9050919050565b7f4552433732313a2061646472657373207a65726f206973206e6f74206120766160008201527f6c6964206f776e65720000000000000000000000000000000000000000000000602082015250565b6000611ef2602983611771565b9150611efd82611e96565b604082019050919050565b60006020820190508181036000830152611f2181611ee5565b9050919050565b7f4552433732313a207472616e736665722066726f6d20696e636f72726563742060008201527f6f776e6572000000000000000000000000000000000000000000000000000000602082015250565b6000611f84602583611771565b9150611f8f82611f28565b604082019050919050565b60006020820190508181036000830152611fb381611f77565b9050919050565b7f4552433732313a207472616e7366657220746f20746865207a65726f2061646460008201527f7265737300000000000000000000000000000000000000000000000000000000602082015250565b6000612016602483611771565b915061202182611fba565b604082019050919050565b6000602082019050818103600083015261204581612009565b9050919050565b7f4552433732313a20617070726f766520746f2063616c6c657200000000000000600082015250565b6000612082601983611771565b915061208d8261204c565b602082019050919050565b600060208201905081810360008301526120b181612075565b9050919050565b7f4552433732313a207472616e7366657220746f206e6f6e20455243373231526560008201527f63656976657220696d706c656d656e7465720000000000000000000000000000602082015250565b6000612114603283611771565b915061211f826120b8565b604082019050919050565b6000602082019050818103600083015261214381612107565b9050919050565b600081519050919050565b600082825260208201905092915050565b60006121718261214a565b61217b8185612155565b935061218b818560208601611782565b612194816117b5565b840191505092915050565b60006080820190506121b4600083018761187a565b6121c1602083018661187a565b6121ce604083018561173c565b81810360608301526121e08184612166565b905095945050505050565b6000815190506121fa81611618565b92915050565b600060208284031215612216576122156115e2565b5b6000612224848285016121eb565b91505092915050565b7f4552433732313a206d696e7420746f20746865207a65726f2061646472657373600082015250565b6000612263602083611771565b915061226e8261222d565b602082019050919050565b6000602082019050818103600083015261229281612256565b9050919050565b7f4552433732313a20746f6b656e20616c7265616479206d696e74656400000000600082015250565b60006122cf601c83611771565b91506122da82612299565b602082019050919050565b600060208201905081810360008301526122fe816122c2565b905091905056fe697066733a2f2f516d54643745766639473662736173414c615353794174724142746d4d45777a4374336f6657477944786d7161712fa26469706673582212202b8f3df0f37651b53ac4878bbbfe3afc7bdbf3a7d2f4f0b928c2975fd47bb1cc64736f6c63430008080033",
  "linkReferences": {},
  "deployedLinkReferences": {}
}